:0400000002007D324B
:03000B000200846C
:0300110002000EDC
:03000E0002006687
:20001400753F41E53E70FC7F0110AF027F00853F3EEF1392AF745AB53F05753F4180E4E53E
:200034003FFF04F53F80DCAE897F004306208E89758DFA759850D28EE53E60FC7F0110AF2D
:20005400027F00853E99753E00EF1392AF1099E880FB7F0110AF027F00753E00EF1392AFF7
:140074009000141200AE02003B020088222222220201FA3296
:2000880075890075A882D28C7535009000661200AE858234E5342430F98781D0D0D083D091
:2000A80082D0F0D0E022740FB535047582FF227F0110AF027F0075370074FC25374041AE34
:2000C800378EF005F07E017D008006EE2EFEED33FDD5F0F7AB357C00EB5206EC5205EE4DDC
:2000E800701AAE378EF005F07401800225E0D5F0FBFEAD354DF5358537368004053780B918
:20010800858138E536C454F0FE243FF581C082C0837400C0E0C0E0C0E0C0E0E536FEC40346
:2001280054F8F539C039E5362430F8A681853881EF1392AF853682227F0110AF027F00C056
:20014800E0C0F0C082C083C0D0E5342430F8A68105347404B53403753400AE348EF005F0CB
:200168007E017D008006EE2EFEED33FDD5F0F7AB357C00EB5206EC5205EE4D60D3E5342475
:2001880030F98781D0D0D083D082D0F0D0E0EF1392AF227F0110AF027F00AE348EF005F0F7
:2001A8007401800225E0D5F0FBFEAD356DF53505347404B53403753400AE348EF005F07EEB
:2001C800017D008006EE2EFEED33FDD5F0F7AB357C00EB5206EC5205EE4D60D3E534243063
:2001E800F98781D0D0D083D082D0F0D0E0EF1392AF22C0E0C0F0C082C083C0D0E53424300A
:20020800F8A68189E08AF08B828C838DD08E388F3905347404B53403753400AF348FF00520
:20022800F07F017E008006EF2FFFEE33FED5F0F7AC357D00EC5207ED5206EF4E60D3A9E069
:1F024800AAF0AB82AC83ADD0AE38AF39E5342430F98781D0D0D083D082D0F0D0E03222DF
:00000001FF
