:0300000002005F9C
:03000600020003F2
:03000300020053A5
:20000900753F41E53E600512010B80F7853F3E745AB53F05753F418006E53FFF04F53F1214
:20002900010B80DF758920758DFA759850D28EE53E700512010B80F7853E99753E00209980
:1D0049000512010B80F8C29980E5753E0090000912008402002D020066222222223E
:20006600753500900053120084858234E5342430F98781D0D0D083D082D0F0D0E022740F54
:20008600B535047582FF2275370074FC25374041AF378FF005F07F017E008006EF2FFFEE72
:2000A60033FED5F0F7AC357D00EC5207ED5206EF4E701AAF378FF005F07401800225E0D573
:2000C600F0FBFFAE354EF5358537368004053780B9858138E537C454F0FF243FF581C0826E
:2000E600C0837400C0E0C0E0C0E0C0E0E537FFC40354F8F539C039E5362430F8A681853823
:200106008185368222C0E0C0F0C082C083C0D0E5342430F8A68105347404B53403753400C2
:20012600AF348FF005F07F017E008006EF2FFFEE33FED5F0F7AC357D00EC5207ED5206EF0F
:200146004E60D3E5342430F98781D0D0D083D082D0F0D0E022AF348FF005F0740180022560
:20016600E0D5F0FBFFAE356EF53505347404B53403753400AF348FF005F07F017E0080063E
:20018600EF2FFFEE33FED5F0F7AC357D00EC5207ED5206EF4E60D3E5342430F98781D0D0FB
:0901A600D083D082D0F0D0E02219
:00000001FF
