:040000000200E432E4
:03000B000200EB05
:0300110002000EDC
:03000E000200A548
:20001400752841E52260FC20E7F915227F0110AF027F00E52060FC20E7F91520E5262423AC
:20003400F8A62805267403B526037526000520EF1392AF0521745AB5280575284180C4E586
:2000540028FF04F52880BCAE897F004306208E89758DFA759850D28EE52160FC20E7F915A2
:20007400217F0110AF027F00E52060FC20E7F91520E5272423F9879910990280FB052774C3
:2000940003B527037527000520EF1392AF052280C77F0110AF027F007D007E00C3ED9403F6
:2000B400EE64809480500DED2423F876000DBD00EB0E80E8752600752700752001752100B9
:1B00D400752203EF1392AF90001412011502005B0200EF2222222202026132FB
:2000EF0075890075A882D28C7535009000A5120115858234E5342430F98781D0D0D083D083
:20010F0082D0F0D0E022740FB535047582FF227F0110AF027F0075370074FC25374041AECC
:20012F00378EF005F07E017D008006EE2EFEED33FDD5F0F7AB357C00EB5206EC5205EE4D74
:20014F00701AAE378EF005F07401800225E0D5F0FBFEAD354DF5358537368004053780B9B0
:20016F00858138E536C454F0FE243FF581C082C0837400C0E0C0E0C0E0C0E0E536FEC403DF
:20018F0054F8F539C039E5362430F8A681853881EF1392AF853682227F0110AF027F00C0EF
:2001AF00E0C0F0C082C083C0D0E5342430F8A68105347404B53403753400AE348EF005F064
:2001CF007E017D008006EE2EFEED33FDD5F0F7AB357C00EB5206EC5205EE4D60D3E534240E
:2001EF0030F98781D0D0D083D082D0F0D0E0EF1392AF227F0110AF027F00AE348EF005F090
:20020F007401800225E0D5F0FBFEAD356DF53505347404B53403753400AE348EF005F07E83
:20022F00017D008006EE2EFEED33FDD5F0F7AB357C00EB5206EC5205EE4D60D3E5342430FB
:20024F00F98781D0D0D083D082D0F0D0E0EF1392AF22C0E0C0F0C082C083C0D0E5342430A2
:20026F00F8A68189E08AF08B828C838DD08E388F3905347404B53403753400AF348FF005B9
:20028F00F07F017E008006EF2FFFEE33FED5F0F7AC357D00EC5207ED5206EF4E60D3A9E002
:1F02AF00AAF0AB82AC83ADD0AE38AF39E5342430F98781D0D0D083D082D0F0D0E0322278
:00000001FF
