:0400000002011B32AC
:03000B00020122CD
:0300110002000EDC
:03000E000200DD10
:20001400752841E52260FC20E7F91522C2AFE52060FC20E7F91520E5262423F8A62805260A
:200034007403B526037526000520D2AF0521745AB528057528418006E528FF04F52812019C
:20005400D780C0752930E52260FC20E7F91522C2AFE52060FC20E7F91520E5262423F8A616
:200074002905267403B526037526000520D2AF05217439B529057529308006E529FF04F572
:20009400291201D780C0AE897F004306208E89758DFA759850D28EE52160FC20E7F9152172
:2000B400C2AFE52060FC20E7F91520E5272423F9879910990280FB05277403B52703752775
:2000D400000520D2AF052280CEC2AF7E007F00C3EE9403EF64809480500DEE2423F8760054
:2000F4000EBE00EB0F80E8752600752700752001752100752203D2AF90005712014C90006A
:120114001412014C02009A020126222222220202833260
:2001260075890075A882D28C7535009000DD12014C858234E5342430F98781D0D0D083D0DC
:2001460082D0F0D0E022740FB535047582FF22C2AF75370074FC25374041AF378FF005F038
:200166007F017E008006EF2FFFEE33FED5F0F7AC357D00EC5207ED5206EF4E701AAF378FD9
:20018600F005F07401800225E0D5F0FBFFAE354EF5358537368004053780B9858138E5361A
:2001A600C454F0FF243FF581C082C0837400C0E0C0E0C0E0C0E0E536FFC40354F8F539C0C5
:2001C60039E5362430F8A681853881D2AF85368222C2AFC0E0C0F0C082C083C0D0E5342421
:2001E60030F8A68105347404B53403753400AF348FF005F07F017E008006EF2FFFEE33FE4D
:20020600D5F0F7AC357D00EC5207ED5206EF4E60D3E5342430F98781D0D0D083D082D0F051
:20022600D0E0D2AF22C2AFAF348FF005F07401800225E0D5F0FBFFAE356EF53505347404B6
:20024600B53403753400AF348FF005F07F017E008006EF2FFFEE33FED5F0F7AC357D00ECE6
:200266005207ED5206EF4E60D3E5342430F98781D0D0D083D082D0F0D0E0D2AF22C0E0C044
:20028600F0C082C083C0D0E5342430F8A68189E08AF08B828C838DD08E388F39053474042C
:2002A600B53403753400AF348FF005F07F017E008006EF2FFFEE33FED5F0F7AC357D00EC86
:2002C6005207ED5206EF4E60D3A9E0AAF0AB82AC83ADD0AE38AF39E5342430F98781D0D032
:0A02E600D083D082D0F0D0E03222A5
:00000001FF
